:0300000002000EED
:0C000E00787FE4F6D8FD758120020055D3
:1002A300C0F9A4B0999282F88090FF01020408106B
:0302B30020408068
:1000F700C284C2A3E4FEED30E704D2828002C2824A
:1001070000D28400C28400ED25E0FD0EBE08E7E4BE
:10011700FEEF30E704D2828002C28200D28400C29E
:100127008400EF25E0FF0EBE08E7D2A300C2A300BC
:0101370022A5
:10025600E4C39F50047E0180027E00C3EE64809456
:0D026600895009EF9002AD93FF1200F722BE
:10017000AE05AC07E4C39C50047F0180027F00C33E
:10018000EF64809489501EEEC3940A5018EC9002DC
:10019000AD93FFEE9002A393300004547F8002449D
:0601A00080FD1200F722B1
:0D030600C282C284C2A37DFFE4FF0200F7A3
:0602E800011401011500E4
:1002B6007F057E047D747CD6DCFEDDFADEF6DFF299
:0102C6002215
:1002D800758901758C3C758AB0D2AFD2A9D28C22AF
:03000B00020211DD
:10021100C0E0C0D00515E515B40A16758C3C758A89
:10022100B0E514B40105751400800375140175154A
:0602310000D0D0D0E03245
:1002C7001203061201381202D81202F71201A68091
:0102D700F82E
:0802EE00060E15120918540058
:1001A600E50AC4540FFDC2007F04120170E50A542B
:1001B6000FFDC2007F03120170E509C4540FFDE56F
:1001C6001424FF92007F02120170E509540FFDC24C
:0601D600007F0102017030
:10009A00C2007D027F08120170C200E4FD7F0712D0
:1000AA000170E50DC4540FFDC2007F06120170E510
:1000BA000D540FFDD2007F05120170E50CC4540FD8
:1000CA00FDC2007F04120170E50C540FFDD2007FBF
:1000DA0003120170E50BC4540FFDC2007F02120126
:0D00EA0070E50B540FFDC2007F0102017094
:10013800E4FD7F8E120313AD0E7F8C120313AD0FF7
:100148007F88120313AD107F86120313AD117F84CD
:10015800120313AD127F82120313AD137F801203B3
:08016800137D807F8E0203135A
:0F02F7007F8312031E8F097F8512031E8F0A2239
:10028D007F8712031E8F0B7F8912031E8F0C7F8DAC
:06029D0012031E8F0D226A
:1001DC00750A15E50AC4540FFDC2007F04120170A4
:1001EC00E50A540FFDD2007F03120170E509C454D7
:1001FC000FFDC2007F02120170E509540FFDD20001
:05020C007F01020170FA
:06023700C2B7C2B6D2B747
:10023D00E4FEC2B6EF30E004D2A18002C2A1D2B674
:08024D00EFC313FF0EBE08EA27
:010255002286
:10027300E4FEC2B6EFC313FF30A10543078080033A
:0902830053077FD2B60EBE08E954
:01028C00224F
:0B031300120237AF0512023DC2B722F4
:08031E00120237120273C2B78C
:0103260022B4
:10001A000202C7E493A3F8E493A34003F68001F233
:10002A0008DFF48029E493A3F85407240CC8C333E7
:10003A00C4540F4420C8834004F456800146F6DFB6
:10004A00E4800B01020408102040809002E8E47E5C
:10005A00019360BCA3FF543F30E509541FFEE493AB
:10006A00A360010ECF54C025E060A840B8E493A372
:10007A00FAE493A3F8E493A3C8C582C8CAC583CA9D
:10008A00F0A3C8C582C8CAC583CADFE9DEE780BE55
:0102F6000007
:00000001FF
